{
  "contractName": "ECommerce",
  "abi": [
    {
      "constant": true,
      "inputs": [
        {
          "name": "",
          "type": "uint256"
        }
      ],
      "name": "goodsShop",
      "outputs": [
        {
          "name": "",
          "type": "address"
        }
      ],
      "payable": false,
      "stateMutability": "view",
      "type": "function"
    },
    {
      "constant": true,
      "inputs": [
        {
          "name": "",
          "type": "uint256"
        }
      ],
      "name": "goodsEscrow",
      "outputs": [
        {
          "name": "",
          "type": "address"
        }
      ],
      "payable": false,
      "stateMutability": "view",
      "type": "function"
    },
    {
      "constant": true,
      "inputs": [],
      "name": "totalGoods",
      "outputs": [
        {
          "name": "",
          "type": "uint256"
        }
      ],
      "payable": false,
      "stateMutability": "view",
      "type": "function"
    },
    {
      "constant": false,
      "inputs": [
        {
          "name": "name",
          "type": "string"
        },
        {
          "name": "category",
          "type": "string"
        },
        {
          "name": "imageLink",
          "type": "string"
        },
        {
          "name": "descLink",
          "type": "string"
        },
        {
          "name": "condition",
          "type": "uint256"
        },
        {
          "name": "startPrice",
          "type": "uint256"
        },
        {
          "name": "auctionStartTime",
          "type": "uint256"
        },
        {
          "name": "auctionEndTime",
          "type": "uint256"
        }
      ],
      "name": "addGoods",
      "outputs": [],
      "payable": false,
      "stateMutability": "nonpayable",
      "type": "function"
    },
    {
      "constant": true,
      "inputs": [
        {
          "name": "goodsId",
          "type": "uint256"
        }
      ],
      "name": "goodsInfo",
      "outputs": [
        {
          "name": "",
          "type": "uint256"
        },
        {
          "name": "",
          "type": "string"
        },
        {
          "name": "",
          "type": "string"
        },
        {
          "name": "",
          "type": "string"
        },
        {
          "name": "",
          "type": "string"
        },
        {
          "name": "",
          "type": "uint256"
        },
        {
          "name": "",
          "type": "uint256"
        },
        {
          "name": "",
          "type": "uint256"
        },
        {
          "name": "",
          "type": "uint256"
        },
        {
          "name": "",
          "type": "uint256"
        }
      ],
      "payable": false,
      "stateMutability": "view",
      "type": "function"
    },
    {
      "constant": false,
      "inputs": [
        {
          "name": "goodsId",
          "type": "uint256"
        },
        {
          "name": "idealPrice",
          "type": "uint256"
        },
        {
          "name": "secret",
          "type": "string"
        }
      ],
      "name": "bid",
      "outputs": [],
      "payable": true,
      "stateMutability": "payable",
      "type": "function"
    },
    {
      "constant": false,
      "inputs": [
        {
          "name": "goodsId",
          "type": "uint256"
        },
        {
          "name": "idealPrice",
          "type": "uint256"
        },
        {
          "name": "secret",
          "type": "string"
        }
      ],
      "name": "revealBid",
      "outputs": [],
      "payable": false,
      "stateMutability": "nonpayable",
      "type": "function"
    },
    {
      "constant": true,
      "inputs": [
        {
          "name": "goodsId",
          "type": "uint256"
        }
      ],
      "name": "bidInfo",
      "outputs": [
        {
          "name": "",
          "type": "uint256"
        },
        {
          "name": "",
          "type": "uint256"
        },
        {
          "name": "",
          "type": "address"
        },
        {
          "name": "",
          "type": "uint256"
        }
      ],
      "payable": false,
      "stateMutability": "view",
      "type": "function"
    },
    {
      "constant": false,
      "inputs": [
        {
          "name": "goodsId",
          "type": "uint256"
        }
      ],
      "name": "finalizeAuction",
      "outputs": [],
      "payable": false,
      "stateMutability": "nonpayable",
      "type": "function"
    },
    {
      "constant": false,
      "inputs": [
        {
          "name": "goodsId",
          "type": "uint256"
        }
      ],
      "name": "voteBuyer",
      "outputs": [],
      "payable": false,
      "stateMutability": "nonpayable",
      "type": "function"
    },
    {
      "constant": false,
      "inputs": [
        {
          "name": "goodsId",
          "type": "uint256"
        }
      ],
      "name": "voteSeller",
      "outputs": [],
      "payable": false,
      "stateMutability": "nonpayable",
      "type": "function"
    },
    {
      "constant": true,
      "inputs": [
        {
          "name": "goodsId",
          "type": "uint256"
        }
      ],
      "name": "escrowInfo",
      "outputs": [
        {
          "name": "",
          "type": "address"
        },
        {
          "name": "",
          "type": "address"
        },
        {
          "name": "",
          "type": "address"
        },
        {
          "name": "",
          "type": "uint256"
        },
        {
          "name": "",
          "type": "uint256"
        },
        {
          "name": "",
          "type": "bool"
        },
        {
          "name": "",
          "type": "bool"
        }
      ],
      "payable": false,
      "stateMutability": "view",
      "type": "function"
    },
    {
      "constant": true,
      "inputs": [
        {
          "name": "goodsId",
          "type": "uint256"
        }
      ],
      "name": "escrowBalance",
      "outputs": [
        {
          "name": "",
          "type": "uint256"
        }
      ],
      "payable": false,
      "stateMutability": "view",
      "type": "function"
    },
    {
      "constant": true,
      "inputs": [],
      "name": "getBalance",
      "outputs": [
        {
          "name": "",
          "type": "uint256"
        }
      ],
      "payable": false,
      "stateMutability": "view",
      "type": "function"
    },
    {
      "constant": true,
      "inputs": [],
      "name": "getNow",
      "outputs": [
        {
          "name": "",
          "type": "uint256"
        }
      ],
      "payable": false,
      "stateMutability": "view",
      "type": "function"
    }
  ],
  "bytecode": "0x608060405234801561001057600080fd5b50613096806100206000396000f3006080604052600436106100db576000357c0100000000000000000000000000000000000000000000000000000000900463ffffffff16806312065fe0146100e05780634708f2031461010b57806362a2c1c0146101385780636d2f137e1461034c57806376d4fc57146103b95780638356052514610429578063a489d5d714610520578063a7fb17dc1461059d578063bb099ee3146105ca578063bbe4fd501461060b578063c609b30c14610636578063da21627b146106a3578063e8083863146106ce578063ea026902146106fb578063f653aa041461085e575b600080fd5b3480156100ec57600080fd5b506100f56108e0565b6040518082815260200191505060405180910390f35b34801561011757600080fd5b50610136600480360381019080803590602001909291905050506108ff565b005b34801561014457600080fd5b50610163600480360381019080803590602001909291905050506109e8565b604051808b8152602001806020018060200180602001806020018a815260200189815260200188815260200187815260200186815260200185810385528e818151815260200191508051906020019080838360005b838110156101d35780820151818401526020810190506101b8565b50505050905090810190601f1680156102005780820380516001836020036101000a031916815260200191505b5085810384528d818151815260200191508051906020019080838360005b8381101561023957808201518184015260208101905061021e565b50505050905090810190601f1680156102665780820380516001836020036101000a031916815260200191505b5085810383528c818151815260200191508051906020019080838360005b8381101561029f578082015181840152602081019050610284565b50505050905090810190601f1680156102cc5780820380516001836020036101000a031916815260200191505b5085810382528b818151815260200191508051906020019080838360005b838110156103055780820151818401526020810190506102ea565b50505050905090810190601f1680156103325780820380516001836020036101000a031916815260200191505b509e50505050505050505050505050505060405180910390f35b34801561035857600080fd5b5061037760048036038101908080359060200190929190505050610e17565b604051808273ffffffffffffffffffffffffffffffffffffffff1673ffffffffffffffffffffffffffffffffffffffff16815260200191505060405180910390f35b6104276004803603810190808035906020019092919080359060200190929190803590602001908201803590602001908080601f0160208091040260200160405190810160405280939291908181526020018383808284378201915050505050509192919290505050610e4a565b005b34801561043557600080fd5b50610454600480360381019080803590602001909291905050506111ae565b604051808873ffffffffffffffffffffffffffffffffffffffff1673ffffffffffffffffffffffffffffffffffffffff1681526020018773ffffffffffffffffffffffffffffffffffffffff1673ffffffffffffffffffffffffffffffffffffffff1681526020018673ffffffffffffffffffffffffffffffffffffffff1673ffffffffffffffffffffffffffffffffffffffff168152602001858152602001848152602001831515151581526020018215151515815260200197505050505050505060405180910390f35b34801561052c57600080fd5b5061059b6004803603810190808035906020019092919080359060200190929190803590602001908201803590602001908080601f0160208091040260200160405190810160405280939291908181526020018383808284378201915050505050509192919290505050611317565b005b3480156105a957600080fd5b506105c86004803603810190808035906020019092919050505061172a565b005b3480156105d657600080fd5b506105f560048036038101908080359060200190929190505050611813565b6040518082815260200191505060405180910390f35b34801561061757600080fd5b506106206118ee565b6040518082815260200191505060405180910390f35b34801561064257600080fd5b50610661600480360381019080803590602001909291905050506118f6565b604051808273ffffffffffffffffffffffffffffffffffffffff1673ffffffffffffffffffffffffffffffffffffffff16815260200191505060405180910390f35b3480156106af57600080fd5b506106b8611929565b6040518082815260200191505060405180910390f35b3480156106da57600080fd5b506106f96004803603810190808035906020019092919050505061192f565b005b34801561070757600080fd5b5061085c600480360381019080803590602001908201803590602001908080601f0160208091040260200160405190810160405280939291908181526020018383808284378201915050505050509192919290803590602001908201803590602001908080601f0160208091040260200160405190810160405280939291908181526020018383808284378201915050505050509192919290803590602001908201803590602001908080601f0160208091040260200160405190810160405280939291908181526020018383808284378201915050505050509192919290803590602001908201803590602001908080601f016020809104026020016040519081016040528093929190818152602001838380828437820191505050505050919291929080359060200190929190803590602001909291908035906020019092919080359060200190929190505050611c4b565b005b34801561086a57600080fd5b5061088960048036038101908080359060200190929190505050611ec8565b604051808581526020018481526020018373ffffffffffffffffffffffffffffffffffffffff1673ffffffffffffffffffffffffffffffffffffffff16815260200182815260200194505050505060405180910390f35b60003073ffffffffffffffffffffffffffffffffffffffff1631905090565b6003600082815260200190815260200160002060009054906101000a900473ffffffffffffffffffffffffffffffffffffffff1673ffffffffffffffffffffffffffffffffffffffff1663ad577552336040518263ffffffff167c0100000000000000000000000000000000000000000000000000000000028152600401808273ffffffffffffffffffffffffffffffffffffffff1673ffffffffffffffffffffffffffffffffffffffff168152602001915050600060405180830381600087803b1580156109cd57600080fd5b505af11580156109e1573d6000803e3d6000fd5b5050505050565b60006060806060806000806000806000610a0061229d565b6000808d81526020019081526020016000206101c0604051908101604052908160008201548152602001600182018054600181600116156101000203166002900480601f016020809104026020016040519081016040528092919081815260200182805460018160011615610100020316600290048015610ac25780601f10610a9757610100808354040283529160200191610ac2565b820191906000526020600020905b815481529060010190602001808311610aa557829003601f168201915b50505050508152602001600282018054600181600116156101000203166002900480601f016020809104026020016040519081016040528092919081815260200182805460018160011615610100020316600290048015610b645780601f10610b3957610100808354040283529160200191610b64565b820191906000526020600020905b815481529060010190602001808311610b4757829003601f168201915b50505050508152602001600382018054600181600116156101000203166002900480601f016020809104026020016040519081016040528092919081815260200182805460018160011615610100020316600290048015610c065780601f10610bdb57610100808354040283529160200191610c06565b820191906000526020600020905b815481529060010190602001808311610be957829003601f168201915b50505050508152602001600482018054600181600116156101000203166002900480601f016020809104026020016040519081016040528092919081815260200182805460018160011615610100020316600290048015610ca85780601f10610c7d57610100808354040283529160200191610ca8565b820191906000526020600020905b815481529060010190602001808311610c8b57829003601f168201915b505050505081526020016005820160009054906101000a900460ff166002811115610ccf57fe5b6002811115610cda57fe5b81526020016005820160019054906101000a900460ff166001811115610cfc57fe5b6001811115610d0757fe5b815260200160068201548152602001600782015481526020016008820154815260200160098201548152602001600a8201548152602001600b820160009054906101000a900473ffffffffffffffffffffffffffffffffffffffff1673ffffffffffffffffffffffffffffffffffffffff1673ffffffffffffffffffffffffffffffffffffffff168152602001600c820154815250509050806000015181602001518260400151836060015184608001518560a001516002811115610dc857fe5b8660c001516001811115610dd857fe5b8760e001518861010001518961012001518898508797508696508595509a509a509a509a509a509a509a509a509a509a50509193959799509193959799565b60016020528060005260406000206000915054906101000a900473ffffffffffffffffffffffffffffffffffffffff1681565b6000806001600086815260200190815260200160002060009054906101000a900473ffffffffffffffffffffffffffffffffffffffff1673ffffffffffffffffffffffffffffffffffffffff163373ffffffffffffffffffffffffffffffffffffffff1614151515610ebb57600080fd5b600080868152602001908152602001600020915081600701544210158015610ee7575081600801544211155b1515610ef257600080fd5b81600601548410151515610f0557600080fd5b83836040516020018083815260200182805190602001908083835b602083101515610f455780518252602082019150602081019050602083039250610f20565b6001836020036101000a038019825116818451168082178552505050505050905001925050506040516020818303038152906040526040518082805190602001908083835b602083101515610faf5780518252602082019150602081019050602083039250610f8a565b6001836020036101000a03801982511681845116808217855250505050505090500191505060405180910390209050600082600d0160003373ffffffffffffffffffffffffffffffffffffffff1673ffffffffffffffffffffffffffffffffffffffff1681526020019081526020016000206000836000191660001916815260200190815260200160002060000160009054906101000a900473ffffffffffffffffffffffffffffffffffffffff1673ffffffffffffffffffffffffffffffffffffffff1614151561108057600080fd5b81600c01600081548092919060010191905055506080604051908101604052803373ffffffffffffffffffffffffffffffffffffffff1681526020018681526020013481526020016000151581525082600d0160003373ffffffffffffffffffffffffffffffffffffffff1673ffffffffffffffffffffffffffffffffffffffff1681526020019081526020016000206000836000191660001916815260200190815260200160002060008201518160000160006101000a81548173ffffffffffffffffffffffffffffffffffffffff021916908373ffffffffffffffffffffffffffffffffffffffff160217905550602082015181600101556040820151816002015560608201518160030160006101000a81548160ff0219169083151502179055509050505050505050565b60008060008060008060006003600089815260200190815260200160002060009054906101000a900473ffffffffffffffffffffffffffffffffffffffff1673ffffffffffffffffffffffffffffffffffffffff166390eca5e8336040518263ffffffff167c0100000000000000000000000000000000000000000000000000000000028152600401808273ffffffffffffffffffffffffffffffffffffffff1673ffffffffffffffffffffffffffffffffffffffff16815260200191505060e060405180830381600087803b15801561128757600080fd5b505af115801561129b573d6000803e3d6000fd5b505050506040513d60e08110156112b157600080fd5b81019080805190602001909291908051906020019092919080519060200190929190805190602001909291908051906020019092919080519060200190929190805190602001909291905050509650965096509650965096509650919395979092949650565b600080600080600080888152602001908152602001600020935083600801544211151561134357600080fd5b85856040516020018083815260200182805190602001908083835b602083101515611383578051825260208201915060208101905060208303925061135e565b6001836020036101000a038019825116818451168082178552505050505050905001925050506040516020818303038152906040526040518082805190602001908083835b6020831015156113ed57805182526020820191506020810190506020830392506113c8565b6001836020036101000a0380198251168184511680821785525050505050509050019150506040518091039020925083600d0160003373ffffffffffffffffffffffffffffffffffffffff1673ffffffffffffffffffffffffffffffffffffffff16815260200190815260200160002060008460001916600019168152602001908152602001600020915060008260000160009054906101000a900473ffffffffffffffffffffffffffffffffffffffff1673ffffffffffffffffffffffffffffffffffffffff161115156114c157600080fd5b8160030160009054906101000a900460ff161515156114df57600080fd5b6000905081600201548611156114fb57816002015490506116b3565b836009015486111561168857600084600b0160009054906101000a900473ffffffffffffffffffffffffffffffffffffffff1673ffffffffffffffffffffffffffffffffffffffff1614156115b157858460090181905550836006015484600a01819055503384600b0160006101000a81548173ffffffffffffffffffffffffffffffffffffffff021916908373ffffffffffffffffffffffffffffffffffffffff160217905550858260020154039050611683565b83600b0160009054906101000a900473ffffffffffffffffffffffffffffffffffffffff1673ffffffffffffffffffffffffffffffffffffffff166108fc85600901549081150290604051600060405180830381858888f1935050505015801561161f573d6000803e3d6000fd5b50836009015484600a01819055508584600901819055503384600b0160006101000a81548173ffffffffffffffffffffffffffffffffffffffff021916908373ffffffffffffffffffffffffffffffffffffffff1602179055508582600201540390505b6116b2565b83600a01548611156116a9578584600a0181905550816002015490506116b1565b816002015490505b5b5b6000811115611704573373ffffffffffffffffffffffffffffffffffffffff166108fc829081150290604051600060405180830381858888f19350505050158015611702573d6000803e3d6000fd5b505b60018260030160006101000a81548160ff02191690831515021790555050505050505050565b6003600082815260200190815260200160002060009054906101000a900473ffffffffffffffffffffffffffffffffffffffff1673ffffffffffffffffffffffffffffffffffffffff16636989e3bd336040518263ffffffff167c0100000000000000000000000000000000000000000000000000000000028152600401808273ffffffffffffffffffffffffffffffffffffffff1673ffffffffffffffffffffffffffffffffffffffff168152602001915050600060405180830381600087803b1580156117f857600080fd5b505af115801561180c573d6000803e3d6000fd5b5050505050565b60006003600083815260200190815260200160002060009054906101000a900473ffffffffffffffffffffffffffffffffffffffff1673ffffffffffffffffffffffffffffffffffffffff166312065fe06040518163ffffffff167c0100000000000000000000000000000000000000000000000000000000028152600401602060405180830381600087803b1580156118ac57600080fd5b505af11580156118c0573d6000803e3d6000fd5b505050506040513d60208110156118d657600080fd5b81019080805190602001909291905050509050919050565b600042905090565b60036020528060005260406000206000915054906101000a900473ffffffffffffffffffffffffffffffffffffffff1681565b60025481565b600080600080600080600080888152602001908152602001600020955085600801544211151561195e57600080fd5b6000600281111561196b57fe5b8660050160009054906101000a900460ff16600281111561198857fe5b14151561199457600080fd5b85600b0160009054906101000a900473ffffffffffffffffffffffffffffffffffffffff1694506001600088815260200190815260200160002060009054906101000a900473ffffffffffffffffffffffffffffffffffffffff1693503392508273ffffffffffffffffffffffffffffffffffffffff168573ffffffffffffffffffffffffffffffffffffffff1614158015611a5c57508273ffffffffffffffffffffffffffffffffffffffff168473ffffffffffffffffffffffffffffffffffffffff1614155b1515611a6757600080fd5b600086600c01541415611a9f5760028660050160006101000a81548160ff02191690836002811115611a9557fe5b0217905550611c42565b85600a0154858585611aaf612339565b808473ffffffffffffffffffffffffffffffffffffffff1673ffffffffffffffffffffffffffffffffffffffff1681526020018373ffffffffffffffffffffffffffffffffffffffff1673ffffffffffffffffffffffffffffffffffffffff1681526020018273ffffffffffffffffffffffffffffffffffffffff1673ffffffffffffffffffffffffffffffffffffffff16815260200193505050506040518091039082f080158015611b66573d6000803e3d6000fd5b5090509150816003600089815260200190815260200160002060006101000a81548173ffffffffffffffffffffffffffffffffffffffff021916908373ffffffffffffffffffffffffffffffffffffffff16021790555085600a015486600901540390506000811115611c1b578473ffffffffffffffffffffffffffffffffffffffff166108fc829081150290604051600060405180830381858888f19350505050158015611c19573d6000803e3d6000fd5b505b60018660050160006101000a81548160ff02191690836002811115611c3c57fe5b02179055505b50505050505050565b6002600081548092919060010191905055506101c060405190810160405280600254815260200189815260200188815260200187815260200186815260200160006002811115611c9757fe5b8152602001856001811115611ca857fe5b6001811115611cb357fe5b81526020018481526020018381526020018281526020016000815260200160008152602001600073ffffffffffffffffffffffffffffffffffffffff16815260200160008152506000806002548152602001908152602001600020600082015181600001556020820151816001019080519060200190611d34929190612349565b506040820151816002019080519060200190611d51929190612349565b506060820151816003019080519060200190611d6e929190612349565b506080820151816004019080519060200190611d8b929190612349565b5060a08201518160050160006101000a81548160ff02191690836002811115611db057fe5b021790555060c08201518160050160016101000a81548160ff02191690836001811115611dd957fe5b021790555060e0820151816006015561010082015181600701556101208201518160080155610140820151816009015561016082015181600a015561018082015181600b0160006101000a81548173ffffffffffffffffffffffffffffffffffffffff021916908373ffffffffffffffffffffffffffffffffffffffff1602179055506101a082015181600c01559050503360016000600254815260200190815260200160002060006101000a81548173ffffffffffffffffffffffffffffffffffffffff021916908373ffffffffffffffffffffffffffffffffffffffff1602179055505050505050505050565b600080600080611ed661229d565b6000808781526020019081526020016000206101c0604051908101604052908160008201548152602001600182018054600181600116156101000203166002900480601f016020809104026020016040519081016040528092919081815260200182805460018160011615610100020316600290048015611f985780601f10611f6d57610100808354040283529160200191611f98565b820191906000526020600020905b815481529060010190602001808311611f7b57829003601f168201915b50505050508152602001600282018054600181600116156101000203166002900480601f01602080910402602001604051908101604052809291908181526020018280546001816001161561010002031660029004801561203a5780601f1061200f5761010080835404028352916020019161203a565b820191906000526020600020905b81548152906001019060200180831161201d57829003601f168201915b50505050508152602001600382018054600181600116156101000203166002900480601f0160208091040260200160405190810160405280929190818152602001828054600181600116156101000203166002900480156120dc5780601f106120b1576101008083540402835291602001916120dc565b820191906000526020600020905b8154815290600101906020018083116120bf57829003601f168201915b50505050508152602001600482018054600181600116156101000203166002900480601f01602080910402602001604051908101604052809291908181526020018280546001816001161561010002031660029004801561217e5780601f106121535761010080835404028352916020019161217e565b820191906000526020600020905b81548152906001019060200180831161216157829003601f168201915b505050505081526020016005820160009054906101000a900460ff1660028111156121a557fe5b60028111156121b057fe5b81526020016005820160019054906101000a900460ff1660018111156121d257fe5b60018111156121dd57fe5b815260200160068201548152602001600782015481526020016008820154815260200160098201548152602001600a8201548152602001600b820160009054906101000a900473ffffffffffffffffffffffffffffffffffffffff1673ffffffffffffffffffffffffffffffffffffffff1673ffffffffffffffffffffffffffffffffffffffff168152602001600c820154815250509050806101400151816101600151826101800151836101a001519450945094509450509193509193565b6101c0604051908101604052806000815260200160608152602001606081526020016060815260200160608152602001600060028111156122da57fe5b8152602001600060018111156122ec57fe5b81526020016000815260200160008152602001600081526020016000815260200160008152602001600073ffffffffffffffffffffffffffffffffffffffff168152602001600081525090565b604051610c7c806123ef83390190565b828054600181600116156101000203166002900490600052602060002090601f016020900481019282601f1061238a57805160ff19168380011785556123b8565b828001600101855582156123b8579182015b828111156123b757825182559160200191906001019061239c565b5b5090506123c591906123c9565b5090565b6123eb91905b808211156123e75760008160009055506001016123cf565b5090565b9056006080604052604051606080610c7c833981018060405281019080805190602001909291908051906020019092919080519060200190929190505050826000806101000a81548173ffffffffffffffffffffffffffffffffffffffff021916908373ffffffffffffffffffffffffffffffffffffffff16021790555081600160006101000a81548173ffffffffffffffffffffffffffffffffffffffff021916908373ffffffffffffffffffffffffffffffffffffffff16021790555080600260006101000a81548173ffffffffffffffffffffffffffffffffffffffff021916908373ffffffffffffffffffffffffffffffffffffffff160217905550505050610b6e8061010e6000396000f3006080604052600436106100af576000357c0100000000000000000000000000000000000000000000000000000000900463ffffffff16806308551a53146100b457806312065fe01461010b5780636989e3bd146101365780637150d8ae146101795780637eaef50c146101d057806390eca5e8146101ff578063ad5775521461030c578063aec2ccae1461034f578063da7dee64146103aa578063f5f75e92146103d5578063fe25e00a14610400575b600080fd5b3480156100c057600080fd5b506100c9610457565b604051808273ffffffffffffffffffffffffffffffffffffffff1673ffffffffffffffffffffffffffffffffffffffff16815260200191505060405180910390f35b34801561011757600080fd5b5061012061047d565b6040518082815260200191505060405180910390f35b34801561014257600080fd5b50610177600480360381019080803573ffffffffffffffffffffffffffffffffffffffff16906020019092919050505061049c565b005b34801561018557600080fd5b5061018e610732565b604051808273ffffffffffffffffffffffffffffffffffffffff1673ffffffffffffffffffffffffffffffffffffffff16815260200191505060405180910390f35b3480156101dc57600080fd5b506101e5610757565b604051808215151515815260200191505060405180910390f35b34801561020b57600080fd5b50610240600480360381019080803573ffffffffffffffffffffffffffffffffffffffff16906020019092919050505061076a565b604051808873ffffffffffffffffffffffffffffffffffffffff1673ffffffffffffffffffffffffffffffffffffffff1681526020018773ffffffffffffffffffffffffffffffffffffffff1673ffffffffffffffffffffffffffffffffffffffff1681526020018673ffffffffffffffffffffffffffffffffffffffff1673ffffffffffffffffffffffffffffffffffffffff168152602001858152602001848152602001831515151581526020018215151515815260200197505050505050505060405180910390f35b34801561031857600080fd5b5061034d600480360381019080803573ffffffffffffffffffffffffffffffffffffffff169060200190929190505050610859565b005b34801561035b57600080fd5b50610390600480360381019080803573ffffffffffffffffffffffffffffffffffffffff169060200190929190505050610af0565b604051808215151515815260200191505060405180910390f35b3480156103b657600080fd5b506103bf610b10565b6040518082815260200191505060405180910390f35b3480156103e157600080fd5b506103ea610b16565b6040518082815260200191505060405180910390f35b34801561040c57600080fd5b50610415610b1c565b604051808273ffffffffffffffffffffffffffffffffffffffff1673ffffffffffffffffffffffffffffffffffffffff16815260200191505060405180910390f35b600160009054906101000a900473ffffffffffffffffffffffffffffffffffffffff1681565b60003073ffffffffffffffffffffffffffffffffffffffff1631905090565b808073ffffffffffffffffffffffffffffffffffffffff166000809054906101000a900473ffffffffffffffffffffffffffffffffffffffff1673ffffffffffffffffffffffffffffffffffffffff16148061054557508073ffffffffffffffffffffffffffffffffffffffff16600160009054906101000a900473ffffffffffffffffffffffffffffffffffffffff1673ffffffffffffffffffffffffffffffffffffffff16145b8061059d57508073ffffffffffffffffffffffffffffffffffffffff16600260009054906101000a900473ffffffffffffffffffffffffffffffffffffffff1673ffffffffffffffffffffffffffffffffffffffff16145b15156105a857600080fd5b600660009054906101000a900460ff161515156105c457600080fd5b600560008373ffffffffffffffffffffffffffffffffffffffff1673ffffffffffffffffffffffffffffffffffffffff16815260200190815260200160002060009054906101000a900460ff1615151561061d57600080fd5b6003600081548092919060010191905055506001600560008473ffffffffffffffffffffffffffffffffffffffff1673ffffffffffffffffffffffffffffffffffffffff16815260200190815260200160002060006101000a81548160ff021916908315150217905550600260035410151561072e576000809054906101000a900473ffffffffffffffffffffffffffffffffffffffff1673ffffffffffffffffffffffffffffffffffffffff166108fc3073ffffffffffffffffffffffffffffffffffffffff16319081150290604051600060405180830381858888f19350505050158015610711573d6000803e3d6000fd5b506001600660006101000a81548160ff0219169083151502179055505b5050565b6000809054906101000a900473ffffffffffffffffffffffffffffffffffffffff1681565b600660009054906101000a900460ff1681565b60008060008060008060008060009054906101000a900473ffffffffffffffffffffffffffffffffffffffff16600160009054906101000a900473ffffffffffffffffffffffffffffffffffffffff16600260009054906101000a900473ffffffffffffffffffffffffffffffffffffffff16600354600454600560008e73ffffffffffffffffffffffffffffffffffffffff1673ffffffffffffffffffffffffffffffffffffffff16815260200190815260200160002060009054906101000a900460ff16600660009054906101000a900460ff169650965096509650965096509650919395979092949650565b808073ffffffffffffffffffffffffffffffffffffffff166000809054906101000a900473ffffffffffffffffffffffffffffffffffffffff1673ffffffffffffffffffffffffffffffffffffffff16148061090257508073ffffffffffffffffffffffffffffffffffffffff16600160009054906101000a900473ffffffffffffffffffffffffffffffffffffffff1673ffffffffffffffffffffffffffffffffffffffff16145b8061095a57508073ffffffffffffffffffffffffffffffffffffffff16600260009054906101000a900473ffffffffffffffffffffffffffffffffffffffff1673ffffffffffffffffffffffffffffffffffffffff16145b151561096557600080fd5b600660009054906101000a900460ff1615151561098157600080fd5b600560008373ffffffffffffffffffffffffffffffffffffffff1673ffffffffffffffffffffffffffffffffffffffff16815260200190815260200160002060009054906101000a900460ff161515156109da57600080fd5b6004600081548092919060010191905055506001600560008473ffffffffffffffffffffffffffffffffffffffff1673ffffffffffffffffffffffffffffffffffffffff16815260200190815260200160002060006101000a81548160ff0219169083151502179055506002600454101515610aec57600160009054906101000a900473ffffffffffffffffffffffffffffffffffffffff1673ffffffffffffffffffffffffffffffffffffffff166108fc3073ffffffffffffffffffffffffffffffffffffffff16319081150290604051600060405180830381858888f19350505050158015610acf573d6000803e3d6000fd5b506001600660006101000a81548160ff0219169083151502179055505b5050565b60056020528060005260406000206000915054906101000a900460ff1681565b60035481565b60045481565b600260009054906101000a900473ffffffffffffffffffffffffffffffffffffffff16815600a165627a7a72305820f947f6573f7636efe495f917d02b0bd7475eee9cc6e1c8c4a3675f12abe9142e0029a165627a7a72305820670f2fc1bb34205d42e5cefc762bb7421458209660d4d3cc9aa7d339cde2cc8e0029",
  "source": "pragma solidity ^0.4.24;\nimport \"./Escrow.sol\";\n\ncontract ECommerce {\n    struct Goods {\n        uint id;\n        string name;\n        string category;\n        string imageLink;\n        string descLink;\n\n        GoodsStatus status;\n        GoodsCondition condition;\n\n        uint startPrice;\n        uint auctionStartTime;\n        uint auctionEndTime;\n\n        uint highestBid;\n        uint secondHighestBid;\n        address highestBidder;\n        uint totalBids;\n\n        mapping(address=>mapping(bytes32=>Bid)) bidList;\n    }\n\n    enum GoodsStatus {Open,Sold,Unsold}\n    enum GoodsCondition {New,Used}\n\n    mapping(uint=>Goods) goodsList;\n    mapping(uint=>address) public goodsShop;\n    uint public totalGoods;\n\n    struct Bid {\n        address bidder;\n        uint goodsId;\n        uint sendPrice;\n        bool revealed;\n    }\n\n    mapping(uint=>address) public goodsEscrow;\n\n    function addGoods(string name,string category,string imageLink,string descLink,uint condition,uint startPrice,uint auctionStartTime,uint auctionEndTime) public {\n        totalGoods++;\n        goodsList[totalGoods]=Goods({id:totalGoods,name:name,category:category,imageLink:imageLink,descLink:descLink,status:GoodsStatus.Open,condition:GoodsCondition(condition),startPrice:startPrice,auctionStartTime:auctionStartTime,auctionEndTime:auctionEndTime,highestBid:0,secondHighestBid:0,highestBidder:0,totalBids:0});\n        goodsShop[totalGoods]=msg.sender;\n    }\n\n    function goodsInfo(uint goodsId) public view returns (uint,string,string,string,string,uint,uint,uint,uint,uint) {\n        Goods memory goods=goodsList[goodsId];\n        return (goods.id,goods.name,goods.category,goods.imageLink,goods.descLink,uint(goods.status),uint(goods.condition),goods.startPrice,goods.auctionStartTime,goods.auctionEndTime);\n    }\n\n    function bid(uint goodsId,uint idealPrice,string secret) payable public {\n        require(msg.sender!=goodsShop[goodsId]);\n        Goods goods=goodsList[goodsId];\n        require(now>=goods.auctionStartTime && now<=goods.auctionEndTime);\n        require(idealPrice>=goods.startPrice);\n        bytes32 hash=keccak256(abi.encodePacked(idealPrice,secret));\n        require(goods.bidList[msg.sender][hash].bidder==0);\n        goods.totalBids++;\n        goods.bidList[msg.sender][hash]=Bid({bidder:msg.sender,goodsId:goodsId,sendPrice:msg.value,revealed:false});\n    }\n\n    function revealBid(uint goodsId,uint idealPrice,string secret) public {\n        Goods goods=goodsList[goodsId];\n        require(now>goods.auctionEndTime);\n        bytes32 hash=keccak256(abi.encodePacked(idealPrice,secret));\n        Bid bid=goods.bidList[msg.sender][hash];\n        require(bid.bidder>0);\n        require(!bid.revealed);\n        uint refund=0;\n        if(idealPrice>bid.sendPrice) {\n            refund=bid.sendPrice;\n        } else if(idealPrice>goods.highestBid) {\n            if(goods.highestBidder==0) {\n                goods.highestBid=idealPrice;\n                goods.secondHighestBid=goods.startPrice;\n                goods.highestBidder=msg.sender;\n                refund=bid.sendPrice-idealPrice;\n            } else {\n                goods.highestBidder.transfer(goods.highestBid);\n                goods.secondHighestBid=goods.highestBid;\n                goods.highestBid=idealPrice;\n                goods.highestBidder=msg.sender;\n                refund=bid.sendPrice-idealPrice;\n            }\n        } else if(idealPrice>goods.secondHighestBid) {\n            goods.secondHighestBid=idealPrice;\n            refund=bid.sendPrice;\n        } else {\n            refund=bid.sendPrice;\n        }\n        if(refund>0) msg.sender.transfer(refund);\n        bid.revealed=true;\n    }\n\n    function bidInfo(uint goodsId) public view returns (uint,uint,address,uint) {\n        Goods memory goods=goodsList[goodsId];\n        return (goods.highestBid,goods.secondHighestBid,goods.highestBidder,goods.totalBids);\n    }\n\n    function finalizeAuction(uint goodsId) public {\n        Goods goods=goodsList[goodsId];\n        require(now>goods.auctionEndTime);\n        require(goods.status==GoodsStatus.Open);\n        address buyer=goods.highestBidder;\n        address seller=goodsShop[goodsId];\n        address arbiter=msg.sender;\n        require(buyer!=arbiter && seller!=arbiter);\n        if(goods.totalBids==0) {\n            goods.status=GoodsStatus.Unsold;\n        } else {\n            Escrow escrow=(new Escrow).value(goods.secondHighestBid)(buyer,seller,arbiter);\n            goodsEscrow[goodsId]=address(escrow);\n            uint refund=goods.highestBid-goods.secondHighestBid;\n            if(refund>0) buyer.transfer(refund);\n            goods.status=GoodsStatus.Sold;\n        }\n    }\n\n    function voteBuyer(uint goodsId) public {\n        Escrow(goodsEscrow[goodsId]).voteBuyer(msg.sender);\n    }\n\n    function voteSeller(uint goodsId) public {\n        Escrow(goodsEscrow[goodsId]).voteSeller(msg.sender);\n    }\n\n    function escrowInfo(uint goodsId) public view returns (address,address,address,uint,uint,bool,bool) {\n        return Escrow(goodsEscrow[goodsId]).escrowInfo(msg.sender);\n    }\n\n    function escrowBalance(uint goodsId) public view returns (uint) {\n        return Escrow(goodsEscrow[goodsId]).getBalance();\n    }\n\n    function getBalance() public view returns (uint) {\n        return address(this).balance;\n    }\n\n    function getNow() public view returns (uint) {\n        return now;\n    }\n}\n",
  "sourcePath": "/Users/zmx/181220/contracts/ECommerce.sol",
  "compiler": {
    "name": "solc",
    "version": "0.4.24+commit.e67f0147.Emscripten.clang"
  },
  "schemaVersion": "2.0.1",
  "updatedAt": "2018-12-21T15:10:03.935Z"
}